:020000040800F2
:1000000000000220713D0008A9180008AB18000884
:10001000AD180008AF180008B11800080000000073
:10002000000000000000000000000000813800080F
:10003000B3180008000000002139000885390008C5
:10004000C13D0008C13D0008C13D0008C13D000898
:10005000C13D0008C13D0008C13D0008C13D000888
:10006000C13D0008C13D0008C13D0008C13D000878
:10007000C13D0008C13D0008C13D0008C13D000868
:10008000C13D0008C13D0008C13D0008C13D000858
:10009000C13D0008C13D0008C13D0008C13D000848
:1000A000C13D0008C13D0008C13D0008C13D000838
:1000B000C13D00085535000865350008C13D000800
:1000C000C13D0008C13D0008C13D0008C13D000818
:1000D000C13D0008C13D0008A5320008952F000869
:1000E000C13D0008C13D0008C13D0008C13D0008F8
:1000F000C13D0008C13D0008C13D0008C13D0008E8
:10010000C13D0008C13D0008C13D0008C13D0008D7
:10011000C13D0008C13D0008C13D0008753500081B
:10012000C13D0008C13D0008C13D0008C13D0008B7
:10013000C13D0008C13D0008C13D0008C13D0008A7
:10014000C13D0008C13D0008C13D0008C13D000897
:10015000C13D0008C13D0008C13D0008C13D000887
:10016000C13D0008C13D0008C13D0008C13D000877
:10017000C13D0008C13D0008C13D0008000000006D
:08018000C13D0008C13D00086B
:1001900053B94AB9002908BF00281CBF4FF0FF31EE
:1001A0004FF0FF3000F00CB8ADF1080C6DE904CE53
:1001B00003F042FEDDF804E0DDE9022304B07047FD
:1001C000704700BF0348044B834202D0034B03B186
:1001D00018477047100000201000002000000000A9
:1001E0000548064B1B1AD90F01EBA301491002D099
:1001F000034B03B118477047100000201000002087
:100200000000000010B5064C237843B9FFF7DAFF71
:10021000044B13B10448AFF300800123237010BDD9
:100220001000002000000000F440000808B5054B55
:100230001BB105490548AFF30080BDE80840FFF752
:10024000CFBF00BF0000000014000020F4400008F1
:1002500010B504460E4B1A784FF47A73B3FBF2F3E1
:100260000C4A1068B0FBF3F000F09CF868B90F2C52
:1002700001D901200AE0002221464FF0FF3000F0B2
:1002800073F8054B1C60002000E0012010BD00BF8A
:1002900000000020080000200400002008B50B4BDF
:1002A0001A6842F400721A601A6842F480621A6096
:1002B0001A6842F480721A60032000F043F80F209D
:1002C000FFF7C6FF01F0D4FA002008BD003C024051
:1002D000014B1868704700BF2C000020002808DB85
:1002E0000901C9B200F1604000F5614080F80013D7
:1002F000704700F00F000901C9B2014B1954704753
:1003000014ED00E000B500F00700C0F1070CBCF1EF
:10031000040F28BF4FF0040C031D062B0FD9C31E7A
:100320004FF0FF3E0EFA0CF021EA000199400EFA60
:1003300003FE22EA0E0241EA02005DF804FB0023FC
:10034000EEE70000074AD36823F4E0631B041B0CAC
:10035000000200F4E060034343F0BF6343F4003362
:10036000D360704700ED00E010B50446054BD86837
:10037000C0F30220FFF7C6FF01462046FFF7AEFF9D
:1003800010BD00BF00ED00E0002807DB00F01F02F9
:10039000400901239340024A42F82030704700BFD1
:1003A00000E100E00138B0F1807F0BD24FF0E02394
:1003B0005861054AF02182F8231000209861072235
:1003C0001A6170470120704700ED00E070B50446E7
:1003D000866DFFF77DFF94F83530DBB2022B06D037
:1003E00080236365002384F83430012070BD054606
:1003F0002268136823F0160313602268536923F000
:1004000080035361236CE3B12268136823F008036F
:1004100013602268136823F00103136023681B68CC
:1004200013F0010F11D0FFF753FF431B052BF5D934
:1004300020236365032084F83500002384F83430DA
:10044000D4E7A36C002BDFD1E3E7E26D3F239340B9
:10045000B360012384F83530002084F83400C5E708
:1004600090F83530DBB2022B03D0802343650120A6
:100470007047052380F835300268136823F00103C4
:10048000136000207047000000230F2B00F2E9806A
:1004900070B582B065E085684FEA430E032404FA24
:1004A0000EF425EA0405CC6804FA0EF42C438460AB
:1004B000446824EA02044A68C2F300129A402243C4
:1004C00042605CE0DC08083450F8242003F00705A3
:1004D000AD004FF00F0E0EFA05FE22EA0E0E0A696D
:1004E000AA4042EA0E0240F824205CE0072200E025
:1004F000002202FA0EF22A4302345A4D45F8242013
:10050000594A94686FEA0C0224EA0C054E6816F406
:10051000801F01D04CEA0405534CA560E46802EA50
:1005200004054E6816F4001F01D04CEA04054E4C39
:10053000E560646802EA04054E6816F4003F01D0E5
:100540004CEA0405484C6560246822404D6815F467
:10055000803F01D04CEA0402434C226001330F2B50
:100560007DD801229A400C6804EA020C32EA0404A5
:10057000F4D14C6804F00304013C012C8BD94A6887
:1005800002F00302032A09D0C4685D000322AA40D6
:1005900024EA02048A68AA402243C2604A6802F040
:1005A0000302022A8ED004684FEA430E032202FAA5
:1005B0000EF224EA02044A6802F0030202FA0EF282
:1005C000224302604A6812F4403FC7D000220192E1
:1005D000264A546C44F480445464526C02F48042C1
:1005E0000192019A9C08A51C1E4A52F8255003F05E
:1005F000030E4FEA8E0E0F2202FA0EF225EA0205D2
:100600001B4A90423FF474AF02F5806290421AD0C8
:1006100002F58062904218D002F58062904216D0B6
:1006200002F58062904214D002F58062904212D0AE
:1006300002F58062904210D002F5806290423FF451
:1006400055AF082255E7012253E7022251E7032262
:100650004FE704224DE705224BE7062249E702B0A7
:1006600070BD704700380140003C01400038024036
:1006700000000240002800F0E08170B582B004461E
:10068000036813F0010F3BD09F4B9B6803F00C03F2
:10069000042B2CD09C4B9B6803F00C03082B21D01F
:1006A0006368B3F5803F4FD0B3F5A02F52D0964B7F
:1006B0001A6822F480321A601A6822F480221A60C2
:1006C0006368002B50D0FFF703FE05468E4B1B6876
:1006D00013F4003F14D1FFF7FBFD401B6428F5D94C
:1006E0000320B1E1884B5B6813F4800FD8D0864BB0
:1006F0001B6813F4003F03D06368002B00F09F8158
:10070000236813F0020F54D07F4B9B6813F00C0F3B
:100710003ED07D4B9B6803F00C03082B33D0E3687D
:10072000002B68D0794B01221A60FFF7D1FD0546F6
:10073000754B1B6813F0020F54D1FFF7C9FD401B26
:100740000228F5D903207FE16F4A136843F4803310
:100750001360B5E76C4B1A6842F480221A601A687D
:1007600042F480321A60ABE7FFF7B2FD0546664BF4
:100770001B6813F4003FC3D0FFF7AAFD401B642899
:10078000F5D9032060E1604B5B6813F4800FC6D19C
:100790005D4B1B6813F0020F03D0E368012B40F0A0
:1007A0005081594A136823F0F803216943EAC103D1
:1007B0001360236813F0080F42D063696BB3534B87
:1007C0000122C3F8802EFFF783FD05464E4B5B6F79
:1007D00013F0020F34D1FFF77BFD401B0228F5D93F
:1007E000032031E1484A136823F0F803216943EA02
:1007F000C1031360DDE7454B00221A60FFF768FD77
:100800000546414B1B6813F0020FD2D0FFF760FD85
:10081000401B0228F5D9032016E13C4B0022C3F807
:10082000802EFFF755FD0546374B5B6F13F0020F27
:1008300006D0FFF74DFD401B0228F5D9032003E148
:10084000236813F0040F77D02F4B1B6C13F0805FDD
:1008500033D1002301932C4B1A6C42F080521A645E
:100860001B6C03F080530193019B0125284B1B68EF
:1008700013F4807F23D0A368012B34D0052B38D00C
:10088000214B1A6F22F001021A671A6F22F004023C
:100890001A67A368002B3DD0FFF71AFD06461A4BD6
:1008A0001B6F13F0020F46D1FFF712FD801B41F2C0
:1008B00088339842F3D90320C6E00025D6E7144ACE
:1008C000136843F480731360FFF702FD0646104B74
:1008D0001B6813F4807FCED1FFF7FAFC801B02283F
:1008E000F5D90320B0E0084A136F43F00103136702
:1008F000CFE7054B1A6F42F004021A671A6F42F0F5
:1009000001021A67C5E700BF0038024000004742F5
:1009100000700040FFF7DCFC0646524B1B6F13F0E3
:10092000020F08D0FFF7D4FC801B41F288339842B5
:10093000F3D9032088E0EDB9A369002B00F0838090
:10094000484A926802F00C02082A51D0022B17D0B4
:10095000454B00221A66FFF7BBFC0446414B1B685F
:1009600013F0007F42D0FFF7B3FC001B0228F5D93B
:10097000032069E03B4A136C23F080531364DBE7E8
:10098000394B00221A66FFF7A3FC0546354B1B685E
:1009900013F0007F06D0FFF79BFC401B0228F5D91F
:1009A000032051E0E369226A1343626A43EA821337
:1009B000A26A5208013A43EA0243E26A43EA026346
:1009C000284A5360284B01221A66FFF781FC04462F
:1009D000244B1B6813F0007F06D1FFF779FC001B46
:1009E0000228F5D903202FE000202DE000202BE085
:1009F000012B2BD01B4B5B6803F48001E269914211
:100A000026D103F03F02216A8A4223D1616A47F668
:100A1000C0721A40B2EB811F1ED103F44031A26AAA
:100A20005208013AB1EB024F18D103F07063E26A49
:100A3000B3EB026F14D1002006E0012070470120C3
:100A400002E0012000E0002002B070BD0120FBE7C1
:100A50000120F9E70120F7E70120F5E70120F3E79E
:100A60000120F1E7003802400000474208B5334B4F
:100A70009B6803F00C03042B5BD0082B5BD12F4B3E
:100A80005A6802F03F025B6813F4800F2CD02B4BA6
:100A90005868C0F388104FEA401CBCEB000C6EEBAA
:100AA0000E0E4FEA8E1343EA9C634FEA8C11B1EBB2
:100AB0000C0163EB0E03DB0043EA5173C90011EB39
:100AC000000C43F10003590200234FEA4C2041EA95
:100AD000DC51FFF75DFB194B5B68C3F30143013346
:100AE0005B00B0FBF3F008BD144B5868C0F38810EE
:100AF0004FEA401CBCEB000C6EEB0E0E4FEA8E135F
:100B000043EA9C634FEA8C11B1EB0C0163EB0E03DB
:100B1000DB0043EA5173C90011EB000C43F1000301
:100B2000990200234FEA8C2041EA9C51FFF730FBE9
:100B3000D1E70348D7E70348D5E700BF00380240B4
:100B400000127A000024F400002800F09B8070B5A9
:100B50000D4604464F4B1B6803F007038B4208D237
:100B6000CBB24C4A1370136803F007038B4240F07A
:100B70008B80236813F0020F17D013F0040F04D0FA
:100B8000454A936843F4E0539360236813F0080FD9
:100B900004D0414A936843F4604393603E4A9368AB
:100BA00023F0F003A1680B439360236813F0010F57
:100BB00032D06368012B21D09A1E012A25D9364AEA
:100BC000126812F0020F61D033498A6822F00302E2
:100BD00013438B60FFF77CFB06462F4B9B6803F0AB
:100BE0000C036268B3EB820F16D0FFF771FB801B1A
:100BF00041F288339842F0D9032042E0264A126835
:100C000012F4003FE0D101203BE0234A126812F0C9
:100C1000007FD9D1012034E01E4B1B6803F007038D
:100C2000AB4207D9EAB21B4B1A701B6803F00703EB
:100C3000AB422DD1236813F0040F06D0164A9368F7
:100C400023F4E053E1680B439360236813F0080F2B
:100C500007D0114A936823F46043216943EAC10332
:100C60009360FFF703FF0C4B9B68C3F303130B4A1E
:100C7000D35CD8400A4B18600A4B1868FFF7E8FAB3
:100C8000002070BD012070470120FAE70120F8E73D
:100C90000120F6E7003C0240003802401441000801
:100CA0000800002004000020014B1868704700BFB6
:100CB0000800002008B5FFF7F7FF044B9B68C3F35B
:100CC0008223034AD35CD84008BD00BF00380240ED
:100CD0000C41000808B5FFF7E7FF044B9B68C3F31E
:100CE0004233034AD35CD84008BD00BF00380240FD
:100CF0000C41000890F83D30DBB2012B37D10223C4
:100D000080F83D300268D36843F00103D360036884
:100D1000194A934220D0B3F1804F1DD0A2F57C42F6
:100D2000934219D002F58062934215D002F5806299
:100D3000934211D002F5784293420DD002F57052E1
:100D4000934209D0A2F59432934205D01A6842F03A
:100D500001021A60002070479A6802F00702062A12
:100D600007D01A6842F001021A6000207047012083
:100D700070470020704700BF000001407047704777
:100D8000704710B5044603681A6912F0020F11D0BB
:100D9000DA6812F0020F0DD06FF002021A6101231F
:100DA000037703689B6913F0030F70D002F098FB80
:100DB0000023237723681A6912F0040F12D0DA682F
:100DC00012F0040F0ED06FF004021A610223237791
:100DD00023689B6913F4407F5FD0204602F080FBBC
:100DE0000023237723681A6912F0080F12D0DA68FB
:100DF00012F0080F0ED06FF008021A610423237757
:100E00002368DB6913F0030F4ED0204602F068FB25
:100E10000023237723681A6912F0100F12D0DA68C2
:100E200012F0100F0ED06FF010021A610823237712
:100E30002368DB6913F4407F3DD0204602F050FB6D
:100E40000023237723681A6912F0010F03D0DA68B0
:100E500012F0010F36D123681A6912F0800F03D007
:100E6000DA6812F0800F34D123681A6912F0400F4B
:100E700003D0DA6812F0400F32D123681A6912F0F9
:100E8000200F03D0DA6812F0200F30D110BDFFF729
:100E900075FF2046FFF773FF8AE72046FFF76EFFD6
:100EA0002046FFF76CFF9BE72046FFF767FF2046D1
:100EB000FFF765FFACE72046FFF760FF2046FFF72E
:100EC0005EFFBDE76FF001021A61204602F0E2FA10
:100ED000C1E76FF080021A61204600F0C8F9C3E74D
:100EE0006FF040021A612046FFF74AFFC5E76FF036
:100EF00020021A61204600F0B9F9C7E70368304ABA
:100F0000904212D0B0F1804F0FD0A2F57C429042B7
:100F10000BD002F58062904207D002F580629042C9
:100F200003D002F57842904203D123F070034A685F
:100F30001343234A90422AD0B0F1804F27D0A2F524
:100F40007C42904223D002F5806290421FD002F58D
:100F5000806290421BD002F57842904217D002F591
:100F60007052904213D002F5806290420FD002F589
:100F7000806290420BD0A2F59832904207D002F5E1
:100F80008062904203D002F58062904203D123F444
:100F90004073CA68134323F080034A691343036014
:100FA0008B68C3620B688362054B984203D003F5DC
:100FB0008063984201D10B69036301234361704749
:100FC0000000014040B310B5044690F83D30F3B145
:100FD000022384F83D30214651F8040BFFF78EFFC1
:100FE000012384F8463084F83E3084F83F3084F89A
:100FF000403084F8413084F8423084F8433084F83B
:10100000443084F8453084F83D30002010BD80F82D
:101010003C3002F035FBDBE701207047002853D05D
:10102000F8B50D46044690F83D30002B47D002231A
:1010300084F83D302268936823F4804323F007034B
:101040009360214651F8040BFFF758FF21688B6825
:101050008A690E6A2868184322F4407222F003025B
:10106000AB68AF6943EA0723134323F47C4323F0BF
:10107000FC03EA68EF6942EA07221A432B6A1B0362
:101080002F6943EA0713134326F0AA066A686D69BD
:1010900042EA05123243886021688B6123681A6234
:1010A000012384F8463084F83E3084F83F3084F8D9
:1010B000423084F8433084F83D300020F8BD80F899
:1010C0003C3002F06DFAB2E70120704701F01F01D9
:1010D0004FF0010C0CFA01FC036A23EA0C030362D3
:1010E000036A8A4013430362704738B5044690F898
:1010F0003E00C0B294F83F3094F84220D2B294F847
:1011000043C00D4609BB01285ED1012A5DD10223EF
:1011100084F83E3084F84230002D39D0042D48D078
:10112000012200212068FFF7D1FF0122042120685D
:10113000FFF7CCFF2268D36843F00203D360226834
:10114000D36843F00403D3602CE0DBB25FFA8CFC7D
:10115000042912D001283DD1012B36D1012A3BD1DF
:10116000BCF1010F3AD1022384F83E3084F83F30BD
:1011700084F8423084F84330CEE7012B26D1BCF10D
:10118000010F25D1022384F83F3084F84330C3E7B0
:10119000012200212068FFF799FF2268D36843F0FD
:1011A0000203D3602268136843F001031360002038
:1011B0000BE0012204212068FFF788FF2268D36832
:1011C00043F00403D360EDE7012038BD0120FCE7C4
:1011D0001846FAE70120F8E71846F6E71046F4E764
:1011E00090F83C20012A3DD010B40346012280F83B
:1011F0003C20022280F83D2002685068946820F06C
:10120000700C086840EA0C0050601A681648824268
:101210001AD0B2F1804F17D0A0F57C40824213D093
:1012200000F5806082420FD000F5806082420BD0D2
:1012300000F57840824207D000F57050824203D01A
:10124000A0F59430824204D124F0800449682143FF
:101250009160012283F83D20002083F83C005DF876
:10126000044B7047022070470000014070477047F0
:10127000026802F10C0353E8003F23F490730C3230
:1012800042E800310029F3D1026802F1140353E867
:10129000003F23F00103143242E800310029F3D16A
:1012A000036B012B05D0202380F83E30002303631D
:1012B0007047026802F10C0353E8003F23F010036B
:1012C0000C3242E800310029F3D1ECE790F83D30D0
:1012D000DBB2212B01D0022070478368B3F5805F19
:1012E00017D0036A5A1C02621A7803685A60C38CCA
:1012F0009BB2013B9BB2C3844BB90268D36823F015
:101300008003D3600268D36843F04003D3600020B9
:1013100070470369002BE4D1036A1B880268C3F39A
:1013200008035360036A02330362E0E710B5044622
:101330000268136923F44053C1680B431361836847
:1013400002691A4343691A43C3691A430168CB68A7
:1013500023F4164323F00C031343CB600268536954
:1013600023F4407381690B4353610368314A93420C
:1013700006D002F58062934202D0FFF79BFC01E0A9
:10138000FFF7A8FCE369B3F5004F29D0002103184B
:1013900049411B1841F10001C90041EA5371DB00CA
:1013A000181863684FEA83024FEA937341F1000112
:1013B000FEF7EEFE204AA2FB00314909642303FB3D
:1013C00011031B013233A2FB03235B0903F0F0027C
:1013D00002EB011203F00F03216813448B6010BD70
:1013E0000023021843EB0301121841F10001C90068
:1013F00041EA5271D200101841F10001626892185E
:101400005B41FEF7C5FE0C4AA2FB0031490964238B
:1014100003FB1103DB003233A2FB03235B095A00F9
:1014200002F4F87202EB011203F00703216813447F
:101430008B60D4E7001001401F85EB5158B310B505
:10144000044690F83D300BB3242384F83D302268E5
:10145000D36823F40053D3602046FFF767FF226868
:10146000136923F4904313612268536923F02A031C
:1014700053612268D36843F40053D3600020206492
:10148000202384F83D3084F83E3010BD80F83C3095
:1014900001F01AFFD8E701207047704708B50168CE
:1014A000CA6822F04002CA60202280F83D20FFF77F
:1014B000F4FF002008BD704708B5806B0023C3858A
:1014C000C384FFF7F8FF08BD704790F83E30DBB2E9
:1014D000222B67D18368B3F5805F4DD0826AB3F564
:1014E000805F04D0002B54D10369002B51D10368D5
:1014F0005B681370836A01338362C38D9BB2013BC7
:101500009BB2C385002B4FD100B583B00268D3686E
:1015100023F02003D3600268D36823F48073D36080
:101520000268536923F001035361202380F83E30A1
:10153000036B012B33D100230363026802F10C0318
:1015400053E8003F23F010030C3242E80031002939
:10155000F3D103681A6812F0100F06D0002201922E
:101560001A6801925B680193019B818DFFF7ACFFC4
:10157000002003B05DF804FB0269002AAED1826A44
:1015800003685B68C3F308031380836A02338362D2
:10159000B3E703685B6803F07F031370AAE701F009
:1015A00089FEE5E7022070470020704710B582B041
:1015B000044602681368D068516913F00F0F09D10F
:1015C00013F0200F0CD010F0200F09D02046FFF7A9
:1015D0007CFF16E011F0010115D110F4907F12D1BB
:1015E000216B012979D013F0800F03D010F0800F08
:1015F00040F0108113F0400F03D010F0400F40F086
:101600000D8102B010BD13F0010F06D010F4807FE1
:1016100003D0226C42F00102226413F0040F04D0C4
:1016200019B1226C42F00202226413F0020F04D0BE
:1016300019B1226C42F00402226413F0080F07D0A3
:1016400010F0200F00D119B1226C42F00802226480
:10165000226C002AD5D013F0200F02D010F0200FFA
:1016600029D123685B6903F04003226C12F0080F54
:1016700000D163B32046FFF7FBFD23685B6913F0DD
:10168000400F20D0226802F1140353E8003F23F0FA
:101690004003143242E800310029F3D1A36B73B147
:1016A000604A1A65A06BFEF7DBFE0028A9D0A06B8C
:1016B000036D9847A5E72046FFF707FFD1E72046CF
:1016C000FFF7F9FE9DE72046FFF7F5FE99E7204674
:1016D000FFF7F1FE0023236493E713F0100F82D08D
:1016E00010F0100F3FF47FAF0023019313680193B4
:1016F00053680193019B536913F0400F50D0A26BC4
:1017000013685B689BB2002B3FF47BAFA18D9942BD
:101710007FF677AFE385D369B3F5807F37D0226852
:1017200002F10C0353E8003F23F480730C3242E8CB
:1017300000310029F3D1226802F1140353E8003F7D
:1017400023F00103143242E800310029F3D122686A
:1017500002F1140353E8003F23F04003143242E83F
:1017600000310029F3D1202384F83E300023236385
:10177000226802F10C0353E8003F23F010030C32FF
:1017800042E800310029F3D1A06BFEF71FFEA18DC6
:10179000E38D9BB2C91A89B22046FFF795FE30E768
:1017A000A18DE38D9BB2C91A89B2E38D9BB2002B48
:1017B0003FF427AF00293FF424AF226802F10C0365
:1017C00053E8003F23F490730C3242E800300028C5
:1017D000F3D1226802F1140353E8003F23F0010320
:1017E000143242E800300028F3D1202384F83E3040
:1017F00000232363226802F10C0353E8003F23F027
:1018000010030C3242E800300028F3D12046FFF7E5
:101810005BFEF6E62046FFF759FDF2E62046FFF7AD
:101820003DFEEEE6B914000800B583B0FEF736FDC4
:1018300001F048FF01F09AFF01F03EFD01F0A2FE29
:1018400001F0B0FB084B1B68084C20469847D4F8C1
:10185000BC50002300938223642201212046A84724
:1018600000F054FEFEE700BF4441000830000020B5
:1018700082B0002100910B4B5A6C42F480425A64B2
:101880005A6C02F480420092009A01911A6C42F064
:1018900080521A641B6C03F080530193019B02B0C9
:1018A000704700BF00380240FEE7FEE7FEE7FEE7B4
:1018B000FEE77047034AD2F8883043F47003C2F859
:1018C0008830704700ED00E000F1080343604FF0FE
:1018D000FF328260C360036100230360704700230E
:1018E0000361704730B40D68B5F1FF3F11D000F1CE
:1018F00008031C465B681A68AA42FAD963684B6001
:1019000099608C606160086103680133036030BCDA
:1019100070470469F2E70369416882688A60416838
:1019200051605A68824206D0002202611A68013A68
:101930001A601868704782685A60F5E710B5044667
:1019400001F0B0FFA26BE36B9A4204D0002401F0D7
:10195000CBFF204610BD0124F9E710B5044601F085
:10196000A1FFA36B23B9012401F0BEFF204610BDE7
:101970000024F9E770B504461546866B026C5AB927
:1019800003681BB100200136A66370BD806801F0BA
:10199000E5F80023A360F6E76DB9406802F03EFA6F
:1019A0006368226C13446360A268934219D323686E
:1019B00063602846E7E7C06802F030FAE368226C0B
:1019C00051429B1AE3602268934202D2A3680B44FF
:1019D000E360022D01D00020D5E726B1013E0020B2
:1019E000D1E72846CFE70020CDE70346026C6AB175
:1019F00010B50846D9681144D9609C68A14201D34A
:101A00001968D960D96802F009FA10BD704738B575
:101A1000054601F047FF95F8454064B201E0013CFE
:101A200064B2002C0ADD6B6A43B105F1240000F0BA
:101A3000B7FF0028F3D001F07BF8F0E7FF2385F82B
:101A4000453001F051FF01F02DFF95F8444064B29C
:101A500001E0013C64B2002C0ADD2B6943B105F1C1
:101A6000100000F09DFF0028F3D001F061F8F0E7CE
:101A7000FF2385F8443001F037FF38BD38B590B109
:101A80000D460446C36B2BB1026C0021A2FB03235D
:101A900093B999B14FF0500383F31188BFF36F8F5F
:101AA000BFF34F8FFEE74FF0500383F31188BFF36E
:101AB0006F8FBFF34F8FFEE70121EAE701F0F2FEDF
:101AC0002368E26B216C01FB0230A0600020A06360
:101AD0006360013A02FB0133E360FF2384F8443082
:101AE00084F84530B5B923691BB901F0FDFE01202A
:101AF00038BD04F1100000F053FF0028F5D04FF07E
:101B0000E0234FF08052C3F8042DBFF34F8FBFF393
:101B10006F8FEAE704F11000FFF7D6FE04F124000E
:101B2000FFF7D2FEE1E738B51D46049C0B4649B9E4
:101B30002460E063236401212046FFF79FFF84F8BF
:101B40004C5038BD2260F4E7F0B583B060B10C466C
:101B5000174605460023A4FB001272B923B904FB03
:101B600005F010F1510F0AD94FF0500383F311889B
:101B7000BFF36F8FBFF34F8FFEE70123EEE75030C7
:101B800002F042F8064638B100903B4600F15002A0
:101B900021462846FFF7C7FF304603B0F0BDF0B539
:101BA00085B0019288B10F461D460446B1B1022DA1
:101BB00020D1E36B012B1DD04FF0500383F311882C
:101BC000BFF36F8FBFF34F8FFEE74FF0500383F3E8
:101BD0001188BFF36F8FBFF34F8FFEE7036C002BAD
:101BE000E5D04FF0500383F31188BFF36F8FBFF33D
:101BF0004F8FFEE700F0A2FF064658B9019B002B6D
:101C000048D04FF0500383F31188BFF36F8FBFF3B9
:101C10004F8FFEE700263DE02A4639462046FFF773
:101C2000A9FE636A7BB948B14FF0E0234FF08052C0
:101C3000C3F8042DBFF34F8FBFF36F8F01F054FE35
:101C4000012005B0F0BD04F1240000F0A9FE002839
:101C5000F4D04FF0E0234FF08052C3F8042DBFF3CF
:101C60004F8FBFF36F8FE9E701F03EFE0020E8E7FA
:101C700002A800F00DFF012619E0002384F844308B
:101C800021E0002384F8453023E02046FFF7BFFE23
:101C900000F052FD01F006FEA26BE36B9A42BBD34B
:101CA000022DB9D0019B002BDED0002EE0D001F038
:101CB0001BFE00F071FC01F0F5FD94F8442052B2D7
:101CC000B2F1FF3FD9D094F8452052B2B2F1FF3FB4
:101CD000D7D001F009FE01A902A800F0E5FED8B9AD
:101CE0002046FFF72BFE0028CFD0019904F1100009
:101CF00000F014FE2046FFF78AFE00F01DFD0028CC
:101D0000C8D14FF0E0234FF08052C3F8042DBFF349
:101D10004F8FBFF36F8FBDE72046FFF778FE00F0CF
:101D20000BFD00208DE72DE9F84390B10F461646D4
:101D30001C460546B1B1022C20D1EB6B012B1DD006
:101D40004FF0500383F31188BFF36F8FBFF34F8FB2
:101D5000FEE74FF0500383F31188BFF36F8FBFF39B
:101D60004F8FFEE7036C002BE5D04FF0500383F359
:101D70001188BFF36F8FBFF34F8FFEE701F0B8FEFE
:101D8000EFF311884FF0500383F31188BFF36F8F87
:101D9000BFF34F8FAA6BEB6B9A4206D3022C04D091
:101DA000002088F31188BDE8F88395F845904FFA34
:101DB00089F9AB6B224639462846FFF7DBFDB9F1BE
:101DC000FF3F0CD16B6A0BB90120EAE705F1240053
:101DD00000F0E6FDD0B1DEB101203060E1E700F0B7
:101DE000E9FB814516D2B9F17F0F06D009F1010355
:101DF0005BB285F845300120D3E74FF0500383F301
:101E00001188BFF36F8FBFF34F8FFEE70120C8E744
:101E10000120C6E70120C4E7F0B585B0019290B17A
:101E20000F460446C1B100F089FE064600BB019B87
:101E3000002B5ED04FF0500383F31188BFF36F8FF8
:101E4000BFF34F8FFEE74FF0500383F31188BFF3CA
:101E50006F8FBFF34F8FFEE7036C002BE3D04FF083
:101E6000500383F31188BFF36F8FBFF34F8FFEE7EB
:101E700000263EE039462046FFF7B7FD013DA56349
:101E8000236923B901F030FD012005B0F0BD04F154
:101E9000100000F085FD0028F4D04FF0E0234FF053
:101EA0008052C3F8042DBFF34F8FBFF36F8FE9E764
:101EB00001F01AFD0020E8E702A800F0E9FD012684
:101EC00021E0002384F8443029E0002384F84530E1
:101ED0002BE02046FFF79BFD00F02EFC09E020469A
:101EE000FFF795FD00F028FC2046FFF736FD00289F
:101EF0003FD101F0D7FCA56B002DBBD1019B002B7E
:101F0000D6D0002ED8D001F0EFFC00F045FB01F058
:101F1000C9FC94F844305BB2B3F1FF3FD1D094F8E0
:101F200045305BB2B3F1FF3FCFD001F0DDFC01A93A
:101F300002A800F0B9FD0028D1D12046FFF70DFD21
:101F40000028C6D0019904F1240000F0E7FC2046E7
:101F5000FFF75DFD00F0F0FB0028CAD14FF0E02351
:101F60004FF08052C3F8042DBFF34F8FBFF36F8F34
:101F7000BFE7002089E770B584B0019290B10E46AA
:101F80000446C1B100F0DAFD054600BB019B002B01
:101F90005ED04FF0500383F31188BFF36F8FBFF310
:101FA0004F8FFEE74FF0500383F31188BFF36F8F1D
:101FB000BFF34F8FFEE7036C002BE3D04FF05003CD
:101FC00083F31188BFF36F8FBFF34F8FFEE70025B8
:101FD0003EE0E56831462046FFF707FDE560636AAD
:101FE00023B901F081FC012004B070BD04F124008C
:101FF00000F0D6FC0028F4D04FF0E0234FF08052E0
:10200000C3F8042DBFF34F8FBFF36F8FE9E701F0E3
:102010006BFC0020E8E702A800F03AFD012521E072
:10202000002384F8443029E0002384F845302BE075
:102030002046FFF7ECFC00F07FFB09E02046FFF7AD
:10204000E6FC00F079FB2046FFF787FC00283FD133
:1020500001F028FCA36B002BBBD1019B002BD6D039
:10206000002DD8D001F040FC00F096FA01F01AFCE7
:1020700094F844305BB2B3F1FF3FD1D094F84530CF
:102080005BB2B3F1FF3FCFD001F02EFC01A902A853
:1020900000F00AFD0028D1D12046FFF75EFC0028A1
:1020A000C6D0019904F1240000F038FC2046FFF767
:1020B000AEFC00F041FB0028CAD14FF0E0234FF006
:1020C0008052C3F8042DBFF34F8FBFF36F8FBFE76C
:1020D000002089E728B110B4044631B3002003463C
:1020E0000DE04FF0500383F31188BFF36F8FBFF300
:1020F0004F8FFEE70E4800EBC30014E00133072BBF
:1021000010D80B4A02EBC3025268A242F2D0002858
:10211000F4D1074A52F83320002AEFD1044800EBEB
:10212000C300EBE708B1016044605DF8044B704701
:102130001801002070B504460D46164601F0B2FBAA
:1021400094F844305BB2B3F1FF3F0DD094F84530C2
:102150005BB2B3F1FF3F0BD001F0C6FBA36B5BB1E9
:102160002046FFF754FC70BD002384F84430EDE7AF
:10217000002384F84530EFE73246294604F1240075
:1021800000F0E4FBECE70000074B1B681B6823B979
:10219000064B4FF0FF321A607047034B1B68DB6839
:1021A0001A68024B1A607047C801002060010020C5
:1021B00010B50446006B01F0A1FD204601F09EFD24
:1021C00010BD2DE9F84380460D4616469946089FF6
:1021D0000A9C9200A521206B01F0F3FD226B06F111
:1021E0008043013B02EB830222F0070665B1002227
:1021F000092A06D8AB5CA11881F834300BB1013242
:10220000F6E7002384F83D30042F08D94FF050033F
:1022100083F31188BFF36F8FBFF34F8FFEE7E76241
:10222000A764201DFFF75BFB04F11800FFF757FBC5
:102230002461C7F10507A76164624A4641463046FA
:1022400001F002FB2060099B03B11C60BDE8F8832C
:1022500038B5002407E004EB840293000E481844CC
:10226000FFF732FB0134042CF5D90C4D2846FFF75B
:102270002BFB0B4C2046FFF727FB0A48FFF724FBFC
:102280000948FFF721FB0948FFF71EFB084B1D60BB
:10229000084B1C6038BD00BFF4010020E0010020A5
:1022A000CC010020B00100209C010020840100200E
:1022B000C8010020C401002010B5044601F0F2FA64
:1022C000294A136801331360284B1B685BB1284B04
:1022D0001B686BB9254B1B68DA6AE36A9A4207D818
:1022E000224B1C6004E0214B1C601368012B37D08B
:1022F000204A1368013313602364E36A01229A4081
:102300001D49086802430A601C4A03EB830302EB81
:1023100083035B68A3609868E060211D4160996059
:10232000E36A03EB8301880002EB810161611158CC
:102330000131115001F0D8FA0D4B1B687BB10B4BEA
:102340001B68DA6AE36A9A4209D24FF0E0234FF041
:102350008052C3F8042DBFF34F8FBFF36F8F10BDB2
:10236000FFF776FFC4E700BF80010020580200207D
:10237000740100206401002078010020F401002095
:102380000F4B1B68D3B110B501F08CFA0D4BDB6815
:10239000DC68201DFFF7BFFA0B4A1368013B13608E
:1023A000074A1368013B136001F09EFA2046FFF7CD
:1023B000FFFE034B1B68002BE6D110BD704700BF2A
:1023C000980100209C0100208001002008B5FFF743
:1023D000D7FF074B1B68012BF9D94FF0E0234FF0D3
:1023E0008052C3F8042DBFF34F8FBFF36F8FEEE71A
:1023F000F401002070B504460D46234B1E68234BA4
:1024000018680430FFF787FA48B9204B1B68DB6A6D
:1024100001229A401E490B6823EA02030B60B4F1C3
:10242000FF3F0DD03444194B1B685C60A6421DD998
:10243000184B1868154B19680431FFF753FA70BD33
:10244000002DEFD0144A5168104B1868816018684D
:102450008C68C46018680430606018680430886054
:102460001B685A61136801331360E8E70B4B186867
:10247000064B19680431FFF735FA094B1B68A34274
:10248000DDD9074B1C60DAE77C01002058020020F0
:1024900078010020C401002084010020C801002030
:1024A000600100202DE9F04385B0074688461446B8
:1024B0001E46900001F0A8FB18B38146582001F099
:1024C000A3FB0546B8B15822002101F07AFCC5F8FB
:1024D00030900023039302950D9B01930C9B009376
:1024E0003346224641463846FFF76BFE2846FFF743
:1024F000E3FE012007E0484601F000FC4FF0FF300A
:1025000001E04FF0FF3005B0BDE8F08300B583B0C7
:102510001A4B019300230093822219491948FFF7AF
:10252000C1FF012807D0B0F1FF3F1DD0164B1B683B
:1025300003B05DF804FB00F0F1FC0128F3D14FF08B
:10254000500383F31188BFF36F8FBFF34F8F0F4B8F
:102550004FF0FF321A600E4B01221A600D4B002221
:102560001A6001F039FAE1E74FF0500383F3118864
:10257000BFF36F8FBFF34F8FFEE700BF5C010020FA
:1025800024410008CD2300084041000860010020DC
:10259000740100207C010020024A1368013313609B
:1025A000704700BF58010020014B1868704700BFFA
:1025B0007C010020014B1868704700BF800100209B
:1025C000F8B5524B1B68002B40F09980504B1C68AB
:1025D00001341C60C4B94F4B1B681B6843B14FF0FA
:1025E000500383F31188BFF36F8FBFF34F8FFEE764
:1025F000484A1168484B186810601960474A1368C8
:1026000001331360FFF7C0FD454B1B68A34211D98E
:102610000020444B1B68DB6A03EB83039A00424BA8
:102620009B58012B00D90120404B1B68002B6BD01D
:10263000012069E0002037E0394B4FF0FF321A608B
:10264000E7E7374B1A60E4E7D968516042E00021C0
:102650009962116801391160DA6A01219140344EA2
:10266000376839433160304902EB82024FEA820C0D
:102670008C44DCF804209A609668DE607560956092
:10268000DA6A02EB820C4FEA8C056E185E614D59D6
:1026900001354FEA8C0C41F80C50DA6A214B1B686B
:1026A000DB6A9A4200D901201A4B1B681B68002B79
:1026B000C2D0184B1B68DB68DB685A689442C0D3F1
:1026C0005A699D68D968A9609D684D6051681D1D53
:1026D000A942B9D0002159611168013911609A6A83
:1026E000002AB9D0DE69196AB160DE694E605668A9
:1026F00003F118018E42AAD1196A5160A7E70D4A69
:102700001368013313600020F8BD00BF580100209A
:102710007C010020C8010020C401002068010020C5
:102720006001002058020020F40100206C0100200C
:10273000780100207001002038B54A4B1B6843B96E
:102740004FF0500383F31188BFF36F8FBFF34F8FA8
:10275000FEE701F0A7F8434B1A68013A1A601B68BC
:10276000002B7AD1404B1B683BB9002476E0196AF4
:10277000516015E0D968516021E000233B4A12689E
:10278000002A47D0394BDB68DB689A6AD869196A36
:102790008160D8694860506803F118018842E6D02A
:1027A000002199621168013911605A699868D968E5
:1027B0008160986848605168181D8142DAD0002114
:1027C0005961116801391160DA6A01219140284C80
:1027D000256829432160274902EB820201EB82022E
:1027E00052689A609468DC6060609060DA6A02EB1C
:1027F0008200840001EB80005861085901300851C3
:10280000D96A1D4A1268D26A9142B7D31B4A012184
:102810001160B3E70BB1FFF7B7FC194B1C6884B923
:10282000164B1C68D4B14FF0E0234FF08052C3F830
:10283000042DBFF34F8FBFF36F8F01240EE0013CD7
:1028400007D0FFF7BDFE0028F9D00C4B01221A601B
:10285000F5E70B4B00221A60E2E7002401F044F890
:10286000204638BD5801002080010020B001002022
:1028700078010020F4010020580200206C010020A3
:1028800070010020204B1B681BB1204B01221A60F5
:1028900070471E4B00221A601D4B1B68B3FA83F36E
:1028A000DBB2C3F11F0303EB83018A0019498A5885
:1028B00042B94FF0500383F31188BFF36F8FBFF31A
:1028C0004F8FFEE7134803EB83018A0002445168EF
:1028D0004968516003EB830C4FEA8C0208320244D2
:1028E000914209D003EB83039A000A4B13445B68BF
:1028F000DA68094B1A607047486862469100054AD9
:102900000A445060EEE700BF580100206C0100202F
:1029100078010020F40100205802002058B110B5C1
:102920000C46094A11681831FEF7DCFF01212046E8
:10293000FFF760FD10BD4FF0500383F31188BFF324
:102940006F8FBFF34F8FFEE75802002038B5D8B124
:102950008C46114605464268104B1868C2611868DB
:1029600094680462186818306060186818309060C5
:102970001B689D622B6801332B6009B14FF0FF3C4F
:102980006046FFF737FD38BD4FF0500383F31188E1
:10299000BFF36F8FBFF34F8FFEE700BF58020020D9
:1029A000C368DB68002B4AD030B49A6AD869196AC8
:1029B0008160D8694860516803F11800814247D0AE
:1029C000002199621168013911602B4A1268002AAE
:1029D00044D15A699868D96881609868486051689C
:1029E000181D814237D000215961116801391160E9
:1029F000DA6A01219140214C256829432160204950
:102A000002EB820201EB820252689A609468DC60F9
:102A100060609060DA6A02EB8200840001EB800063
:102A20005861085901300851DA6A164B1B68DB6A95
:102A30009A421FD90120144B186030BC70474FF0E8
:102A4000500383F31188BFF36F8FBFF34F8FFEE7FF
:102A5000196A5160B4E7D9685160C4E70B4A5168FC
:102A6000D9618C681C62606088609A62116801316B
:102A70001160D9E70020E0E758010020780100202C
:102A8000F4010020580200206C010020B001002059
:102A9000034B1B680360034B1B684360704700BF18
:102AA000680100207C010020F8B5B8B10C4605464D
:102AB000E9B100F0F7FE1C4B19686B68C81A226870
:102AC000B2F1FF3F2AD0194E36682F68B74217D0AF
:102AD0008B4215D800232360012420E04FF05003DF
:102AE00083F31188BFF36F8FBFF34F8FFEE74FF073
:102AF000500383F31188BFF36F8FBFF34F8FFEE74F
:102B0000824203D800232360012408E05B1A1344A7
:102B100023602846FFF7BCFF002400E0002400F0FB
:102B2000E3FE2046F8BD00BF7C01002068010020C4
:102B3000014B01221A6070476C010020054B1B6895
:102B400033B1054B1B680BB1002070470220704762
:102B5000012070477401002058010020002851D046
:102B600070B50446294B1B68834208D04FF05003D0
:102B700083F31188BFF36F8FBFF34F8FFEE7C36CF2
:102B800043B94FF0500383F31188BFF36F8FBFF346
:102B90004F8FFEE7013BC364C16A826C914233D020
:102BA0000BB1002070BD051D2846FEF7B4FE38B9F4
:102BB000E36A01229A4016490B6823EA02030B607C
:102BC000A36CE362C3F10502A261012000FA03F2E3
:102BD0000F490E6832430A600E4A03EB830302EB8F
:102BE00083035B68A3609968E1604D609D60E36A60
:102BF00003EB83018D0002EB8101616151590144B6
:102C00005151CFE7002070470020CBE75802002049
:102C100078010020F4010020064B1A6813682BB9D4
:102C20000123036023B9D368186870470023F8E7CD
:102C3000002070476C02002008B54160006191429D
:102C40000CD8D21A83699A4201D3012008BD011D14
:102C5000094B1868FEF746FE0020F7E79A4201D2BA
:102C6000994206D2011D054B1868FEF73BFE002075
:102C7000ECE70120EAE700BF680200206C020020B8
:102C800070B504460D46164604E0A3691D44236A48
:102C900020469847A1692B46324629442046FFF733
:102CA000CBFF0028F1D170BD70B505460E460D4B27
:102CB0001B68DB68DC68201DFEF72DFE94F82830C9
:102CC00013F0040F07D123F0010384F82830236A9E
:102CD0002046984770BD324629462046FFF7D0FF70
:102CE000F5E700BF6C02002008B505E0DB684FF097
:102CF000FF311868FFF7D8FF054B1B681A68002AD8
:102D0000F4D1044A106802490860136008BD00BF8E
:102D10006C0200206802002038B50546FFF744FC2D
:102D20000446074B1B68834205D800232B60044BE5
:102D30001C60204638BDFFF7D7FF01232B60F6E764
:102D40005C02002070B582B006460C46FFF724FCFA
:102D500001A8FFF7E1FF019B33BB0546E4B9B04290
:102D600013D22246711B124B1868FFF7E3F9FFF7E5
:102D7000E3FCD8B94FF0E0234FF08052C3F8042DA4
:102D8000BFF34F8FBFF36F8F10E0FFF7D5FC2946DD
:102D90003046FFF789FF09E0064A126812680AB94F
:102DA0000124DEE71C46DCE7FFF7C6FC02B070BD7D
:102DB000640200206802002030B585B0002201A91D
:102DC000384B1868FFF728F8002869D0019B002BC2
:102DD000F4DB039C636913B1201DFEF79CFD68467C
:102DE000FFF79AFF0546019B013B082BE6D8DFE879
:102DF00003F00505293049050529300094F82830ED
:102E000043F0010384F82830029BA169024619446B
:102E10002046FFF711FF0028D0D094F8283013F097
:102E2000040F07D123F0010384F82830236A2046D9
:102E30009847C3E7A3692A46029919442046FFF739
:102E40001FFFF3E794F8283023F0010384F82830BB
:102E5000B4E794F8283043F0010384F8283002994D
:102E6000A16131B10346024601442046FFF7E4FE6A
:102E7000A4E74FF0500383F31188BFF36F8FBFF3C4
:102E80004F8FFEE794F8283013F0020F04D023F0A0
:102E9000010384F8283091E7204600F02FFF8DE7EA
:102EA00005B030BD6402002000B583B001A8FFF773
:102EB000B3FE0199FFF746FFFFF77EFFF6E700003C
:102EC00038B500F0EFFC0F4B1B6813B100F00CFDA0
:102ED00038BD0D4D2846FEF7F7FC0C4C2046FEF79A
:102EE000F3FC0B4B1D600B4B1C6000220C210A20D5
:102EF000FEF72AFE034B18600028E7D00649FFF7CB
:102F0000E9F8E3E764020020840200207002002058
:102F10006C020020680200202C41000800B583B03C
:102F2000FFF7CEFF0D4B1B685BB10D4B01930223E6
:102F3000009300234FF482720A490B48FFF7B2FA5C
:102F400040B94FF0500383F31188BFF36F8FBFF385
:102F50004F8FFEE703B05DF804FB00BF6402002062
:102F60006002002034410008A92E000808B5084A74
:102F700002604FF4E132426000228260C26002616E
:102F80000C2141618261C261FEF758FA08BD00BFA1
:102F90000048004008B50248FEF708FB08BD00BF26
:102FA0009802002008B50248FFF7E0FF08BD00BF07
:102FB00098020020D0F8DC30036000207047000049
:102FC00010B50B88012B04D00446032B0ED0022031
:102FD0000BE01148FDF78EFE3C211048FEF785F806
:102FE0003C210F48FEF781F8012010BD00220D4959
:102FF000D0F8D000FEF7BFFF28B1D4F8CC00036BA7
:10300000094A08499847D4F8E0300749D4F8D40071
:1030100098470120E9E700BF48030020D8030020BB
:1030200090030020F4020020DC02002008B50223F7
:103030000022FEF7B4FD08BD08B50223FEF773FEBB
:1030400008BD000010B504461349C0F8D810134B52
:10305000C0F8DC30124BC0F8E030124BC0F8E4305E
:1030600000F0ECF8402000F0CFFDC4F8CC0000F0F8
:103070005BF80D4B1C600D4B1C60002204210120ED
:10308000FEF762FDC4F8D000002218210120FEF7EF
:103090005BFDC4F8D40010BDB52F0008C12F000897
:1030A0002D30000839300008FC020020F802002012
:1030B00090ED007AB1F9023007EE903AF8EEE77A37
:1030C00067EE877AC0ED027A90ED017AB1F90030AF
:1030D00007EE903AF8EEE77A67EE877AC0ED037A6A
:1030E000704783680361C368436170470369836104
:1030F00043694362704738B504461546436B9847A9
:10310000A36B20469847E36B2046984704F11803C9
:1031100093E8070085E807000C35243494E807009D
:1031200085E8070038BD00000B4B03630B4B43637E
:103130000B4BC3630B4B83630B4B03600B4B436025
:1031400000238360C360036143618361C3610362E1
:1031500043628362C3627047F7300008B1300008F1
:10316000ED300008E33000082EE34D3B2EE3CD3A6E
:1031700010B50446036898472368024920469847DB
:1031800010BD00BF4841000838B504460568A8478F
:1031900030B904492046A847236803492046984788
:1031A00038BD00BF504100084C41000870B582B0E6
:1031B00004460E4610469D0800220421FEF7C4FC7A
:1031C0002066231D019300962346AAB20349D4F832
:1031D000C800FFF767F902B070BD00BF3C410008AE
:1031E00010B582B00446D0F8B430074998474FF084
:1031F000FF3201A9206EFEF70FFED4F8B830019916
:1032000020469847F3E700BF5441000800B583B05B
:103210000191002301A9006EFEF785FD03B05DF862
:1032200004FB00B583B0019100231A4601A9006E8A
:10323000FEF7B5FC03B05DF804FB00000160094B2C
:10324000C0F8B430084BC0F8B830084BC0F8C030F4
:10325000074BC0F8C430074BC0F8C830064BC0F865
:10326000BC307047713100088931000823320008F2
:103270000D320008E1310008AD31000808B5084AF8
:1032800002604FF4E132426000228260C26002615B
:103290000C2141618261C261FEF7D0F808BD00BF18
:1032A0000044004008B50248FEF780F908BD00BFA1
:1032B000000300207047000008B50248FFF7DEFF5A
:1032C00008BD00BF0003002010B58AB0002305939D
:1032D000069307930893099303682F4A934204D0F7
:1032E0002E4A93422CD00AB010BD002401942C4BDE
:1032F0001A6C42F400321A641A6C02F40032019221
:10330000019A02941A6B42F001021A631B6B03F0DC
:1033100001030293029B0C230593022306930323CC
:1033200008930723099305A91E48FDF7ADF8224627
:1033300009212620FDF718F82620FDF725F8D2E709
:1033400000240394164B1A6C42F480221A641A6CFF
:1033500002F480220392039A04941A6B42F0020250
:103360001A631B6B03F002030493049B4FF4406346
:10337000059302230693032308930723099305A9C2
:103380000948FDF781F822460A212720FCF7ECFFC7
:103390002720FCF7F9FFA6E7004400400048004062
:1033A00000380240000002400004024030B58DB0F9
:1033B0002422002103A800F004FD002501950295B8
:1033C0000D4C0E4B23606560A5604FF6FF73E36004
:1033D0002561A5610323039301230593099303A9A1
:1033E0002046FDF71BFE0195029501A92046FDF739
:1033F000F7FE0DB030BD00BFD80300200004004030
:1034000030B58DB02422002103A800F0DAFC00259D
:10341000019502950D4C0E4B23606560A5604FF63B
:10342000FF73E3602561A5610323039301230593E3
:10343000099303A92046FDF7F1FD0195029501A925
:103440002046FDF7CDFE0DB030BD00BF900300203B
:103450000008004030B583B00025009501950B4C65
:103460000B4B236054236360A5604FF4FA73E36051
:103470008023A3612046FDF7A5FD009501956946CF
:103480002046FDF7ADFE03B030BD00BF480300206D
:103490000014004000B583B00023019302680D4B77
:1034A0009A420ED0019B4BB14FF0E0234FF0805277
:1034B000C3F8042DBFF34F8FBFF36F8F03B05DF8D8
:1034C00004FB054B1868D0F8C43001AA034998479B
:1034D000E8E700BF00140040FC020020584100084B
:1034E00010B582B0002301930368164A934210D0AE
:1034F000154A934219D0019B4BB14FF0E0234FF096
:103500008052C3F8042DBFF34F8FBFF36F8F02B00B
:1035100010BD5B6A0D494B800D4B1B68D3F8E4402E
:1035200001AAD3F8D000A047E5E75B6A07490B8002
:10353000074B1B68D3F8E44001AAD3F8D000A0479A
:10354000D9E700BF00080040000400404403002009
:10355000F802002008B50248FDF713FC08BD00BFC3
:10356000D803002008B50248FDF70BFC08BD00BFDA
:103570009003002008B50248FDF703FC08BD00BF1A
:103580004803002008B5FFF711FFFFF739FFFFF7E9
:1035900061FF024B00225A801A8008BD44030020BC
:1035A00010B58AB0002305930693079308930993F7
:1035B00003682E4A934204D02D4A93422BD00AB07E
:1035C00010BD002401942B4B1A6C42F002021A64C5
:1035D0001A6C02F002020192019A02941A6B42F0F4
:1035E00001021A631B6B03F001030293029BC023C9
:1035F00005930223069301220792099305A91E4809
:10360000FCF742FF224607211D20FCF7ADFE1D20DE
:10361000FCF7BAFED3E700240394164B1A6C42F071
:1036200004021A641A6C02F004020392039A0494CE
:103630001A6B42F008021A631B6B03F00803049331
:10364000049B4FF4405305930223069301220792F3
:10365000099305A90948FCF717FF224607211E20F8
:10366000FCF782FE1E20FCF78FFEA8E70004004056
:10367000000800400038024000000240000C0240F8
:1036800002680E4B9A4200D0704700B583B000220A
:10369000019203F50933196C41F0200119641B6C88
:1036A00003F020030193019B08213720FCF75CFE07
:1036B0003720FCF769FE03B05DF804FB00140040FE
:1036C00072B6FEE700B595B03022002108A800F0E0
:1036D00078FB0023039304930593069307930193C8
:1036E000204A116C41F080511164126C02F080523A
:1036F0000192019A02931C4B1A6842F480421A60AC
:103700001B6803F480430293029B012308934FF448
:103710008033099302220E924FF480030F93042307
:103720001093A82111911292139308A8FCF7A2FFFD
:1037300098B90F23039302230493002305934FF4B6
:10374000A05306934FF480530793052103A8FDF778
:10375000FBF920B915B05DF804FBFFF7B1FFFFF7E7
:10376000AFFF00BF003802400070004084B000226C
:103770000092154B196B41F080011963196B01F030
:103780008001009100990192196B41F001011963C8
:10379000196B01F00101019101990292196B41F03D
:1037A00002011963196B01F002010291029903925F
:1037B0001A6B42F008021A631B6B03F008030393B1
:1037C000039B04B0704700BF0038024082B0002362
:1037D00001930D4B1B68B3F1FF3F08D04FF050032E
:1037E00083F31188BFF36F8FBFF34F8FFEE74FF066
:1037F000500383F31188BFF36F8FBFF34F8F019B8B
:10380000002BFCD002B070470C0000200848006874
:10381000006880F308884FF0000080F3148862B6D7
:1038200061B6BFF34F8FBFF36F8F00DF00BF0000A3
:1038300008ED00E0DFF80C00016841F47001016060
:103840007047000088ED00E04FF0807340F8043CC2
:1038500021F0010140F8081C054B40F80C3C40F8F1
:10386000202C6FF0020340F8243C4438704700BF1E
:10387000CD3700080000000000000000000000003C
:10388000074B19680868B0E8F04F80F30988BFF368
:103890006F8F4FF0000080F311887047AFF3008006
:1038A000580200204FF0500383F31188BFF36F8F4D
:1038B000BFF34F8F0B4A136801331360012B00D005
:1038C00070474FF0E023D3F8043D13F0FF0FF7D01B
:1038D0004FF0500383F31188BFF36F8FBFF34F8F07
:1038E000FEE700BF0C000020094B1B6843B94FF0F6
:1038F000500383F31188BFF36F8FBFF34F8FFEE741
:10390000013B034A13600BB983F31188704700BF72
:103910000C0000200000000000000000000000007B
:10392000EFF30980BFF36F8F154B1A681EF0100F6D
:1039300008BF20ED108A20E9F04F10602DE9090042
:103940004FF0500080F31188BFF34F8FBFF36F8F9C
:10395000FEF798FF4FF0000080F3118809BC19684A
:103960000868B0E8F04F1EF0100F08BFB0EC108AE6
:1039700080F30988BFF36F8F704700BFAFF30080FB
:103980005802002008B54FF0500383F31188BFF3AD
:103990006F8FBFF34F8FFEF713FE28B14FF0E02378
:1039A0004FF08052C3F8042D002383F3118808BD23
:1039B0004FF0E022002313619361054B1B6805491A
:1039C000A1FB03139B09013B53610723136170475C
:1039D00008000020D34D62104FF0E023D3F8002DF3
:1039E0003D4B9A421CD04FF0E023D3F8002D3B4BC7
:1039F0009A421ED030B583B0394B1A78D2B20192B8
:103A0000FF221A701B78DBB28DF803309DF803306B
:103A100003F05003334A1370334B07221A601BE044
:103A20004FF0500383F31188BFF36F8FBFF34F8FB5
:103A3000FEE74FF0500383F31188BFF36F8FBFF39E
:103A40004F8FFEE7284A1368013B13609DF803304F
:103A50005B00DBB28DF803309DF8033013F0800F6C
:103A6000F0D1214B1B68032B08D04FF0500383F398
:103A70001188BFF36F8FBFF34F8FFEE71B021A4A07
:103A8000136003F4E0631360019BDBB2144A13700C
:103A90004FF0E024D4F8203D43F47003C4F8203DF7
:103AA000D4F8203D43F07043C4F8203DFFF780FF79
:103AB00000250E4B1D60FFF7BDFED4F8343F43F0E8
:103AC0004043C4F8343FFFF7A1FEFEF7DBFEFFF7EB
:103AD0007DFE284603B030BD71C20F4170C20F4158
:103AE00000E400E024040020200400200C0000205A
:103AF000EFF305830F2B0FD9114A9B5CDBB2114A00
:103B000012789A4208D94FF0500383F31188BFF31B
:103B10006F8FBFF34F8FFEE74FF0E023D3F80C3DDC
:103B200003F4E063084A1268934208D94FF0500347
:103B300083F31188BFF36F8FBFF34F8FFEE770479A
:103B4000F0E300E02404002020040020104A12F0DA
:103B5000070F1AD0D11D21F00701C1F59633134488
:103B60000A460C480260002141601344083B23F0E0
:103B700007030948036059601960991A516013607E
:103B8000064B1960064B196070474FF49633E8E70F
:103B9000440400203C0400203804002030040020AD
:103BA00034040020164B1A461B688342FBD351682D
:103BB00002EB010C844509D0416800EB010C634520
:103BC00009D00360904219D01060704740680144EA
:103BD00051601046F0E710B40A4C2468A3420BD0A1
:103BE0005B681944416013681B680360904200D011
:103BF00010605DF8044B70470460F7E7704700BF42
:103C00003C0400203804002070B50546FEF7C4FCD3
:103C1000354B1B685BB175B105F00703C3F11002AA
:103C2000113BAB4206D3AD1805D5002647E0FFF7A0
:103C30008DFFF0E70025002D40D02C4B1B68AB42D8
:103C40004BD32B4A146801E022461C466368AB4202
:103C500002D22368002BF7D1234B1B68A3423ED02E
:103C6000166808362368136063685B1B102B10D935
:103C7000601910F0070F08D04FF0500383F311883C
:103C8000BFF36F8FBFF34F8FFEE743606560FFF7B1
:103C900089FF626815490B689B1A0B601549096812
:103CA0008B4201D213490B6042F000426260002354
:103CB0002360114A13680133136000E00026FEF709
:103CC0003BFD16F0070F0CD04FF0500383F3118823
:103CD000BFF36F8FBFF34F8FFEE70026EFE700269D
:103CE000EDE7304670BD00BF3804002034040020EA
:103CF0003C040020300400202C04002090B338B590
:103D00000446A0F1080550F8043C002B08DB4FF0F6
:103D1000500383F31188BFF36F8FBFF34F8FFEE71C
:103D200050F8082C42B14FF0500383F31188BFF3D1
:103D30006F8FBFF34F8FFEE723F0004340F8043C42
:103D4000FEF72AFC54F8041C074A13680B4413605E
:103D50002846FFF727FF054A136801331360FEF773
:103D6000EBFC38BD704700BF34040020280400205D
:103D7000DFF834D00D480E490E4A002302E0D45833
:103D8000C4500433C4188C42F9D30B4A0B4C0023A3
:103D900001E013600432A242FBD3FDF78BFD00F07B
:103DA00019F8FDF741FD70470000022000000020D7
:103DB000100000206C410008100000204430012059
:103DC000FEE702440346934200D1704703F8011B0B
:103DD000F9E7000070B50D4D0D4C641BA4100026D2
:103DE000A64209D10B4D0C4C00F084F9641BA410C1
:103DF0000026A64205D170BD55F8043B9847013610
:103E0000EEE755F8043B98470136F2E764410008B5
:103E10006441000864410008684100080A44914276
:103E200000F1FF3300D1704710B511F8014B03F8D2
:103E3000014F9142F9D110BD2DE9F047089D0E4682
:103E400004460F46002B4AD194468C45B2FA82F2C2
:103E500060D942B1C2F12003974020FA03F30CFA73
:103E600002FC1F4394404FEA1C4E1FFA8CF6B7FB2E
:103E7000FEF1230C0EFB117743EA074301FB06F02A
:103E800098420AD91CEB030301F1FF3780F015813A
:103E9000984240F21281023963441B1AA4B2B3FB68
:103EA000FEF00EFB103344EA034400FB06F6A64284
:103EB0000AD91CEB040400F1FF3380F00081A64214
:103EC00040F2FD806444023840EA0140A41B002116
:103ED0001DB1D4400023C5E90043BDE8F0878B4203
:103EE00005D90DB1C5E9000100210846F5E7B3FA8F
:103EF00083F1002946D1B34202D3824200F2F58019
:103F0000841A66EB030201201746002DE5D0C5E9AF
:103F10000047E2E7002A40F09380A1EB0C034FEA50
:103F20001C471FFA8CFE0121B3FBF7F607FB163086
:103F3000230C43EA00430EFB06F0984208D91CEB21
:103F4000030306F1FF3802D2984200F2D0804646C1
:103F50001B1AA4B2B3FBF7F007FB103344EA034487
:103F60000EFB00FEA64508D91CEB040400F1FF334C
:103F700002D2A64500F2B6801846A4EB0E0440EA31
:103F80000640A5E7C1F120078B4022FA07FC4CEA66
:103F9000030C06FA01FE20FA07F426FA07F344EAB6
:103FA0000E0400FA01F84FEA1C404FEA1449B3FB33
:103FB000F0FE1FFA8CF600FB1E3349EA03430EFBAA
:103FC00006F9994502FA01F20BD91CEB03030EF135
:103FD000FF3A80F08580994540F28280AEF1020E72
:103FE0006344A3EB0909A4B2B9FBF0F300FB1399F6
:103FF00044EA094403FB06F6A64208D91CEB040474
:1040000003F1FF3068D2A64266D9023B644443EA1A
:104010000E40A41BA0FB02E6B4427346B14652D345
:104020004FD05DB1B8EB030264EB090404FA07F763
:1040300022FA01F31F43CC40C5E9007400214CE78C
:10404000C2F1200120FA01F30CFA02FC26FA01F178
:10405000964033434FEA1C471FFA8CFEB1FBF7F042
:1040600007FB1016190C41EA064100FB0EF68E42C2
:1040700004FA02F408D91CEB010100F1FF382DD23B
:104080008E422BD902386144891B9BB2B1FBF7F6F3
:1040900007FB161143EA014306FB0EF1994208D9CA
:1040A0001CEB030306F1FF3814D2994212D9023EE9
:1040B00063445B1A46EA004136E73946EDE61846A6
:1040C00002E7F045ADD2BEEB020366EB0C06013809
:1040D000B146A6E74646ECE7034698E74046D3E7F5
:1040E000D6467EE76444023847E708460DE7023EBD
:1040F00063442DE7F8B500BFF8BC08BC9E46704786
:0C410000F8B500BFF8BC08BC9E46704734
:10410C000000000001020304000000000000000099
:10411C00010203040607080949444C45000000004D
:10412C00546D725100000000546D72205376630080
:10413C00414F000004000000453000080100000061
:10414C00010000000200000001000000030000005C
:08415C00DCFCFF7F0100000004
:044164002D02000820
:044168000502000844
:10416C0001000000100000000024F400AAAAAAAA72
:0400000508003D7141
:00000001FF
